:0400000002002B329D
:01000B0032C2
:0100130032BA
:01001B0032B2
:0300230002009741
:06008400750C007511006F
:03008A000200264B
:0500260012033580FE0D
:07008D00750A00750B0075F8
:030094000900223E
:0E009700C0E0C002C003C000C0D075D000AAF7
:0A00A50099C298BA0304D200803219
:0500AF00300102802D6C
:0900B40074B2250A500D150AE58D
:0800BD000B7005750B4D80026C
:0200C500150B19
:0600C700AB0B050BEB245E
:0A00CD004DF8A60274B2250B500393
:0300D700750B00A6
:0700DA00050ABA0402D2017D
:0B00E100D0D0D000D003D002D0E0321D
:0700EC00E50A7003F5822212
:0600F300AA090509EA2438
:0A00F9004DF8860274B22509500389
:030103007509007B
:05010600150A8A8222A7
:0C010B00AA0A7B00744EC39AFAE49BFB26
:0E011700C374129A74808BF063F08095F0E44C
:0401250033F582220A
:0E0129007582F51205DBE582541FFABA110C3F
:0C01370075823A1205CC7582340205CCAA
:010143002299
:0A01440012012912060B75823A120F
:0C014E0005CC7582331205CC758234128A
:06015A0005CC750801222E
:0A01600012012912060B75823312FA
:09016A0005CC7582351205CC7537
:030173000802225D
:0E0176007582FA1205DBE582547FFA60028082
:010184000D6D
:0D0185007582F81205B4E5825404FA600496
:040192007A0080026D
:020196007A01EC
:030198008A822236
:0C019B007402B5080A120176E5826003C8
:0301A7000201440E
:0101AA002232
:0601AB00E4B50C02800E19
:0701B1007401B50C0280454A
:0701B8007402B50C5D8055D7
:0601BF0030011CE50AF509
:0801C5000D04F51875823F12CC
:0901CD00054675180175823F1208
:0601D6000546750C01C294
:0201DC000122FE
:0A01DE0074C4250A5036750D3C75F7
:0901E800183D75823F12054675B1
:0901F100180175823F12054675E4
:0301FA000C0122D3
:0901FD00E50D600F1200EC858293
:080206001875823F1205461530
:02020E000D22BF
:04021000750C022245
:06021400120160750C00F0
:01021A0022C1
:0B021B0030000F12010BE5826008C2EA
:070226000075820602045876
:01022D0022AE
:07022E0030866B75190F7596
:060235001A00751B407564
:09023B001C0175827F1205637538
:0302440019107519
:060247001A00751B407552
:0A024D001C0175827F1205637A0020
:09025700AB0F7C001BBBFF011C76
:0E0260008A057E00C3ED9BEE64808CF063F097
:09026E008095F0502675190E75FB
:060277001A00751B407522
:0B027D001C0175827FC0021205638522
:0A0288000E82120458D0027404B56F
:040292000E028003D5
:030296000A80BE1D
:030299000201441B
:01029C00223F
:0C029D00E51170347582FB1205DBE58270
:0802A900547FFA24FD400122FC
:0402B1007519117535
:0602B5001A00751B4075E4
:0902BB001C0175827F12056375B8
:0302C40019127597
:0602C7001A00751B4075D2
:0802CD001C0175827F0205632C
:0E02D5007582F51205DBE582541FFBBB012884
:0802E300E51124FE501C751901
:0502EB0013751A0075F7
:0902F0001B40751C0175827F1290
:0602F9000563851382126B
:0602FF000458151180DE19
:0603050075110002014425
:0E030B007582FB1205DBE582547FFA24FE505A
:050319001A75191375AF
:06031E001A00751B40757A
:090324001C0175827F120563853E
:06032D00138212045815B2
:0103330011B8
:0103340022A6
:0E03350053846C43859275808353913E4392AE
:0E034300CD7590CD53B1FE43B20175B00043AD
:0E035100A24043D14043D12075D2FF75D3FFA7
:0E035F0090018012039543BA201204C2D2AC62
:07036D00D2AFC200C2011271
:05037400008D120144A0
:0903790012021B7401B508051203
:04038200029D800355
:0303860012019BC6
:070389007402B5080280E9CF
:050390001201AB80E446
:0E039500AA82AB8375985243BA80BA6005BB4A
:0403A30000028020B4
:0803A700BAC005BB0002802072
:0803AF00BA8005BB01028020A9
:0803B700BA4005BB02028020E0
:0803BF00BA802BBB042880204A
:0803C70075BE8875BF02801E9F
:0803CF0075BEBC75BF0280166B
:0803D70075BE5675BF01800ED2
:0803DF0075BEDE75BF0080064B
:0603E70075BE6775BF0042
:0603ED0075BD03D2992248
:0803F300AA82AB83ACF07D008F
:0E03FB00ED2AFEE43BFF8C008E828F8388F09B
:05040900120639601D20
:05040E0010990280FBC3
:0E0413008D060DEE2AFEE43BFF8C008E828FDC
:0A0421008388F0120639F59980D0A7
:01042B0022AE
:08042C00AA82AB83ACF07D0055
:06043400C3ED951D501DF3
:05043A0010990280FB97
:0E043F008D060DEE2AFEE43BFF8C008E828FB0
:0A044D008388F0120639F59980DD6E
:010457002282
:02045800AA8276
:05045A0010990280FB77
:03045F008A992255
:0E046200E582FAC4540FFB53030F74302BFBDA
:0804700024C6500474072BFBA5
:0504780010990280FB59
:0E047D008B99740F5AFB74302BFB24C650046D
:04048B0074072BFBCC
:05048F0010990280FB42
:030494008B99221F
:04049700AA827B08B2
:07049B00EB60047C0180020C
:0204A2007C00DC
:0D04A400EC6016C297EA30E704D2968002A1
:0204B100C296F1
:0A04B300D297EAA2953AFA1B80DE08
:0504BD00C2978A8222B3
:0804C200D297C296C2817AFFB5
:0604CA00EA60031A80FA4B
:0404D000D2817AFF5C
:0604D400EA60031A80FA41
:0404DA00C281C29782
:0904DE002095FD7582301204978F
:0704E7002095FD7514597505
:0304EE001506757B
:0904F100168075172F75820012A8
:0904FA00050575186075823E02CB
:020503000546AB
:04050500AA82C28183
:0E0509002095FD74404AF582120497AA827B69
:0105170000E3
:0A051800C3EB95175023EB2514FCEC
:0A052200E43515FDAE168C828D83C2
:0E052C008EF0120639F582C002C00312049749
:07053A00D003D0020B80D7B3
:05054100D2818A822234
:04054600AA82C28142
:0C054A002095FD8A82120497AA82851871
:0D05560082C002120497D002D2818A822254
:04056300AA82C28125
:0E0567002095FD74804AF582120497AA827BCB
:010575000085
:0A057600C3EB951C5033EB2519FC74
:0A058000E4351AFDAE1B758200C0C1
:0E058A0002C003C004C005C006120497AF8271
:0E059800D006D005D004D003D0028C828D8313
:0905A6008EF0EF1206200B80C755
:0505AF00D2818A8222C6
:0405B400AA82C281D4
:0E05B8002095FD74804AF5821204977582002A
:0605C600120497D281220D
:0405CC00AA82C281BC
:0B05D0002095FD8A82120497D2812240
:0E05DB00AA8274404AF582C0021205B4AB82B7
:0505E900D002430240B6
:0E05EE008A82C002C0031205B4AC82D003D0D2
:0805FC0002ECFDB503028004CE
:040604008D0380E6FC
:030608008D8222BE
:06060B007582361205CCD9
:0E0611007582F51205DBE582541FFABA01F27C
:01061F0022B8
:0E065900062E0700D391FF0E050106080010C3
:0E06670009F4CA758331E534070018166C4398
:0E06750040914650785610E92A001F41005966
:050683007F3F813509F5
:031E000043A208F2
:0D1E0300D1E37591007592007590FF75890F
:0C1E100010538FEF758780E4F58DF58B83
:0C1E1C00D1E93091FBD1E92091FBD28E7E
:0B1E28003091FDC28ED1E9858D347928
:0C1E330034E58BD7C4F404F58BF58D75F5
:0C1E3F008920D28E759852D1A9B455FBB1
:0A1E4B007D00D1A9B43AF9D18285D7
:021E5500353323
:041E5700D18285357A
:041E5B0031D182857A
:021E5F0035301C
:041E6100D182853570
:081E650034E533FA60097980CD
:071E6D00D182A73509DAF963
:081E7400EDFCD182ECB5350252
:061E7C00C1C87458E12604
:061E8200D1A9D1B3C4F5A3
:031E880035D1A9A8
:071E8B00D1B34235EDC39510
:031E920035FD22F9
:0A1E9500D1E93099FBC299F59922BA
:0A1E9F00D1E93098FBC298E59922C2
:091EA900D19FD19530E602C2E59B
:011EB200220D
:081EB30030E6022409540F225D
:0A1EBB00540FC3940A5003243A2286
:031EC50024412293
:071EC800E53423901ECF73E7
:041ECF00E10BC1F072
:041ED300E18BE19826
:041ED700E1A9E1BBE1
:041EDB00E1B7E1DEAC
:041EDF00C100E12A33
:061EE30075C1FF43A7E0FA
:071EE90075C2A575C35A2262
:0C1EF0007402F1F4740112FF03EFF1F42E
:021EFC00E124DF
:021F0000C1031B
:071F02007452D195EFF1F4D8
:021F0900E17382
:081F0B00AB33EB6014AD30AC08
:051F1300317F80740025
:0C1F180078FF7696C2D112FF0320D5DEC0
:021F2400742E19
:041F2600D195E173FD
:0C1F2A007880868308868208863108864D
:071F360030083098FDC2984D
:0C1F3D00B60010F1D57A10E583F1F4E550
:071F490082F1F4743DD19513
:0A1F5000AC83AD82740712FF03EFAB
:071F5A00B60004F1F480035E
:031F6100B4001DAC
:0A1F6400E531B58313E530B5820EB8
:051F6E00B60102E124B0
:091F7300F1D53099FDD29CC14B5F
:011F7C00A3C1
:041F7D00DAD1E13D97
:081F8100E583F1F4E582F1F4BF
:021F8900E17302
:0B1F8B007980E7FF09E7FD7402E11810
:021F9600E10266
:0D1F98007980E7FF740312FF0320D5F2EFFC
:041FA500F1F4E1244E
:0C1FA9007980E7FF09E7FC09E7FD7404FC
:021FB500E11831
:041FB7007406E1C10A
:061FBB007980E7FF7405C8
:0C1FC10012FF0320D5CFECF1F4EDF1F499
:061FCD00EEF1F4EFF1F467
:021FD300E12407
:091FD500740DD195740AD1952216
:0D1FDE00742ED19579FFD9FED9FEC28E79FF
:091FEB0080878D878BD28EE124E2
:071FF400FCC4D1BBD195EC48
:051FFB00D1BBD19522CD
:06005A00E478FFF6D8FD7A
:080038007900E94400601B7A25
:05004000009006887825
:030045000075A0A3
:0A00480000E493F2A308B8000205DB
:08005200A0D9F4DAF275A0FF59
:0E06200020F71030F6118883A88220F507F627
:05062E00A883758300A4
:0106330022A4
:03063400F280F75A
:02063700F022AF
:080060007800E84400600A7911
:030068000075A080
:06006B0000E4F309D8FCDB
:080071007800E84400600C79FE
:0B00790000900000E4F0A3D8FCD9FACE
:03002B0075819A42
:0A002E00120655E582600302002669
:0E06390020F71430F6148883A88220F507E617
:06064700A8837583002268
:03064D00E280F751
:03065000E493220E
:02065300E022A3
:040655007582002288
:00000001FF
