:0400000002002B329D
:01000B0032C2
:0100130032BA
:01001B0032B2
:030023000200A236
:06008400750C007511006F
:03008A000200264B
:0500260012032080FE22
:0B008D00C2AF75C2A575C35AD2AF22E6
:07009800750A00750B0075ED
:03009F0009002233
:0E00A200C0E0C002C003C000C0D075D000AAEC
:0A00B00099C298BA0304D20080320E
:0500BA00300102802D61
:0900BF0074B2250A500D150AE582
:0800C8000B7005750B4D800261
:0200D000150B0E
:0600D200AB0B050BEB2453
:0A00D8004DF8A60274B2250B500388
:0300E200750B009B
:0700E500050ABA0402D20172
:0B00EC00D0D0D000D003D002D0E03212
:0700F700E50A7003F5822207
:0600FE00AA090509EA242D
:0A0104004DF8860274B2250950037D
:03010E0075090070
:05011100150A8A82229C
:0C011600AA0A7B00744EC39AFAE49BFB1B
:0E012200C374129A74808BF063F08095F0E441
:0401300033F58222FF
:0E0134007582F512053FE582541FFABA110CD0
:0C01420075823A120530758234020530D7
:01014E00228E
:0A014F0012013412056F75823A1296
:0C015900053075823312053075823412B7
:06016500053075080122BF
:0A016B0012013412056F7582331281
:0901750005307582351205307564
:03017E0008022252
:0C0181007402B5080F120584E582858326
:08018D00F045F0600302014F90
:010195002247
:06019600E4B50C02800E2E
:07019C007401B50C0280455F
:0701A3007402B50C5D8055EC
:0601AA0030011CE50AF51E
:0801B0000D04F51875823F12E1
:0901B80004AA75180175823F12BA
:0601C10004AA750C01C246
:0201C700012213
:0A01C90074C4250A5036750D3C750C
:0901D300183D75823F1204AA7563
:0901DC00180175823F1204AA7596
:0301E5000C0122E8
:0901E800E50D600F1200F785829D
:0801F1001875823F1204AA15E3
:0201F9000D22D5
:0401FB00750C02225B
:0601FF0012016B750C00FB
:0102050022D6
:0B02060030000F120116E5826008C2F4
:07021100007582060203F1F3
:0102180022C3
:0702190030866B75190F75AB
:060220001A00751B407579
:090226001C0175827F1204C775EA
:03022F001910752E
:060232001A00751B407567
:0A0238001C0175827F1204C77A00D2
:09024200AB0F7C001BBBFF011C8B
:0E024B008A057E00C3ED9BEE64808CF063F0AC
:090259008095F0502675190E7510
:060262001A00751B407537
:0B0268001C0175827FC0021204C785D4
:0A0273000E821203F1D0027404B5EC
:04027D000E028003EA
:030281000A80BE32
:0302840002014F25
:010287002254
:0C028800E51170347582FB12053FE58221
:08029400547FFA24FD40012211
:04029C00751911754A
:0602A0001A00751B4075F9
:0902A6001C0175827F1204C7756A
:0302AF00191275AC
:0602B2001A00751B4075E7
:0802B8001C0175827F0204C7DE
:0E02C0007582F512053FE582541FFBBB012835
:0802CE00E51124FE501C751916
:0502D60013751A00750C
:0902DB001B40751C0175827F12A5
:0602E40004C7851382121D
:0602EA0003F1151180DE96
:0602F00075110002014F30
:0E02F6007582FB12053FE582547FFA24FE500C
:050304001A75191375C4
:060309001A00751B40758F
:09030F001C0175827F1204C785F0
:0603180013821203F1152F
:01031E0011CD
:01031F0022BB
:0E03200053846C43859275808353913E4392C3
:0E032E00CD7590CD53B1FE43B20175B00043C2
:0E033C00A24043D14043D12075D2FF75D3FFBC
:0E034A0090018012039343BA20120426D2AC15
:07035800D2AFC200C2011286
:0E035F00009812014F75C1FFC2AF75A7E5757A
:07036D00C2A575C35AD2AF0F
:0903740012008D1202067401B59D
:07037D00080512028880034D
:03038400120181E2
:070387007402B5080280E6D4
:05038E0012019680E160
:0E039300AA82AB8375985243BA80BA6005BB4C
:0403A10000028020B6
:0803A500BAC005BB0002802074
:0803AD00BA8005BB01028020AB
:0803B500BA4005BB02028020E2
:0803BD00BA802BBB042880204C
:0803C50075BE8875BF02801EA1
:0803CD0075BEBC75BF0280166D
:0803D50075BE5675BF01800ED4
:0803DD0075BEDE75BF0080064D
:0603E50075BE6775BF0044
:0603EB0075BD03D299224A
:0203F100AA82DE
:0503F30010990280FBDF
:0303F8008A9922BD
:0403FB00AA827B084F
:0703FF00EB60047C018002A9
:020406007C0078
:0D040800EC6016C297EA30E704D29680023D
:02041500C2968D
:0A041700D297EAA2953AFA1B80DEA4
:05042100C2978A82224F
:08042600D297C296C2817AFF51
:06042E00EA60031A80FAE7
:04043400D2817AFFF8
:06043800EA60031A80FADD
:04043E00C281C2971E
:090442002095FD7582301203FBC8
:07044B002095FD7514F77503
:0304520015057518
:09045500168075172F7582001244
:09045E00046975186075823E0204
:0204670004AAE5
:04046900AA82C28120
:0E046D002095FD74404AF5821203FBAA827BA3
:01047B000080
:0A047C00C3EB95175023EB2514FC89
:0A048600E43515FDAE168C828D835F
:0E0490008EF01205D7F582C002C0031203FBE6
:07049E00D003D0020B80D750
:0504A500D2818A8222D1
:0404AA00AA82C281DF
:0C04AE002095FD8A821203FBAA828518AB
:0D04BA0082C0021203FBD002D2818A82228E
:0404C700AA82C281C2
:0E04CB002095FD74804AF5821203FBAA827B05
:0104D9000022
:0A04DA00C3EB951C5033EB2519FC11
:0A04E400E4351AFDAE1B758200C05E
:0E04EE0002C003C004C005C0061203FBAF82AB
:0E04FC00D006D005D004D003D0028C828D83B0
:09050A008EF0EF1205BE0B80C754
:05051300D2818A822262
:04051800AA82C28170
:0E051C002095FD74804AF5821203FB75820063
:06052A001203FBD2812246
:04053000AA82C28158
:0B0534002095FD8A821203FBD2812279
:0E053F00AA8274404AF582C002120518AB82EF
:05054D00D00243024052
:0E0552008A82C002C003120518AC82D003D00A
:0805600002ECFDB5030280046A
:040568008D0380E699
:03056C008D82225B
:06056F0075823612053012
:0E0575007582F512053FE582541FFABA01F2B5
:010583002255
:0E0584007582F512053FE582541FFABA010296
:020592008009DE
:05059400BA0D02800415
:040599007B00800261
:02059D007B01E0
:08059F00EB7009BA110280049F
:0405A7007B00800253
:0205AB007B01D2
:0805AD00EB7009BA160280048C
:0405B5007A00800246
:0205B9007A01C5
:0305BB008A82220F
:0E05F700062E0700D391FF0E05010608001026
:0E06050009F4CA758331E534070018166C43FA
:0E06130040914650785610E92A001F410059C8
:050621007F3F81350957
:031E000043A208F2
:0D1E0300D1E37591007592007590FF75890F
:0C1E100010538FEF758780E4F58DF58B83
:0C1E1C00D1E93091FBD1E92091FBD28E7E
:0B1E28003091FDC28ED1E9858D347928
:0C1E330034E58BD7C4F404F58BF58D75F5
:0C1E3F008920D28E759852D1A9B455FBB1
:0A1E4B007D00D1A9B43AF9D18285D7
:021E5500353323
:041E5700D18285357A
:041E5B0031D182857A
:021E5F0035301C
:041E6100D182853570
:081E650034E533FA60097980CD
:071E6D00D182A73509DAF963
:081E7400EDFCD182ECB5350252
:061E7C00C1C87458E12604
:061E8200D1A9D1B3C4F5A3
:031E880035D1A9A8
:071E8B00D1B34235EDC39510
:031E920035FD22F9
:0A1E9500D1E93099FBC299F59922BA
:0A1E9F00D1E93098FBC298E59922C2
:091EA900D19FD19530E602C2E59B
:011EB200220D
:081EB30030E6022409540F225D
:0A1EBB00540FC3940A5003243A2286
:031EC50024412293
:071EC800E53423901ECF73E7
:041ECF00E10BC1F072
:041ED300E18BE19826
:041ED700E1A9E1BBE1
:041EDB00E1B7E1DEAC
:041EDF00C100E12A33
:061EE30075C1FF43A7E0FA
:071EE90075C2A575C35A2262
:0C1EF0007402F1F4740112FF03EFF1F42E
:021EFC00E124DF
:021F0000C1031B
:071F02007452D195EFF1F4D8
:021F0900E17382
:081F0B00AB33EB6014AD30AC08
:051F1300317F80740025
:0C1F180078FF7696C2D112FF0320D5DEC0
:021F2400742E19
:041F2600D195E173FD
:0C1F2A007880868308868208863108864D
:071F360030083098FDC2984D
:0C1F3D00B60010F1D57A10E583F1F4E550
:071F490082F1F4743DD19513
:0A1F5000AC83AD82740712FF03EFAB
:071F5A00B60004F1F480035E
:031F6100B4001DAC
:0A1F6400E531B58313E530B5820EB8
:051F6E00B60102E124B0
:091F7300F1D53099FDD29CC14B5F
:011F7C00A3C1
:041F7D00DAD1E13D97
:081F8100E583F1F4E582F1F4BF
:021F8900E17302
:0B1F8B007980E7FF09E7FD7402E11810
:021F9600E10266
:0D1F98007980E7FF740312FF0320D5F2EFFC
:041FA500F1F4E1244E
:0C1FA9007980E7FF09E7FC09E7FD7404FC
:021FB500E11831
:041FB7007406E1C10A
:061FBB007980E7FF7405C8
:0C1FC10012FF0320D5CFECF1F4EDF1F499
:061FCD00EEF1F4EFF1F467
:021FD300E12407
:091FD500740DD195740AD1952216
:0D1FDE00742ED19579FFD9FED9FEC28E79FF
:091FEB0080878D878BD28EE124E2
:071FF400FCC4D1BBD195EC48
:051FFB00D1BBD19522CD
:06005A00E478FFF6D8FD7A
:080038007900E94400601B7A25
:05004000009006267887
:030045000075A0A3
:0A00480000E493F2A308B8000205DB
:08005200A0D9F4DAF275A0FF59
:0E05BE0020F71030F6118883A88220F507F68A
:0505CC00A88375830007
:0105D1002207
:0305D200F280F7BD
:0205D500F02212
:080060007800E84400600A7911
:030068000075A080
:06006B0000E4F309D8FCDB
:080071007800E84400600C79FE
:0B00790000900000E4F0A3D8FCD9FACE
:03002B0075819A42
:0A002E001205F3E5826003020026CC
:0E05D70020F71430F6148883A88220F507E67A
:0605E500A88375830022CB
:0305EB00E280F7B4
:0305EE00E4932271
:0205F100E02206
:0405F30075820022EB
:00000001FF
