:0400000002002B329D
:01000B0032C2
:0100130032BA
:01001B0032B2
:030023000200A236
:06008400750C007511006F
:03008A000200264B
:0500260012034080FE02
:0B008D00C2AF75C2A575C35AD2AF22E6
:07009800750A00750B0075ED
:03009F0009002233
:0E00A200C0E0C002C003C000C0D075D000AAEC
:0A00B00099C298BA0304D20080320E
:0500BA00300102802D61
:0900BF0074B2250A500D150AE582
:0800C8000B7005750B4D800261
:0200D000150B0E
:0600D200AB0B050BEB2453
:0A00D80021F8A60274B2250B5003B4
:0300E200750B009B
:0700E500050ABA0402D20172
:0B00EC00D0D0D000D003D002D0E03212
:0700F700E50A7003F5822207
:0600FE00AA090509EA242D
:0A01040021F8860274B225095003A9
:03010E0075090070
:05011100150A8A82229C
:0C011600AA0A7B00744EC39AFAE49BFB1B
:0E012200C374129A74808BF063F08095F0E441
:0401300033F58222FF
:0E0134007582F512055FE582541FFABA110CB0
:0C01420075823A12055075823402055097
:01014E00228E
:0A014F0012013412058F75823A1276
:0C01590005507582331205507582341277
:060165000550750801229F
:0A016B0012013412058F7582331261
:0901750005507582351205507524
:03017E0008022252
:0E0181007582FA12055FE582547FFA600280F3
:01018F000D62
:0D0190007582F8120538E5825404FA600407
:04019D007A00800262
:0201A1007A01E1
:0301A3008A82222B
:0C01A6007402B5080A120181E5826003B2
:0301B20002014FF8
:0101B5002227
:0601B600E4B50C02800E0E
:0701BC007401B50C0280453F
:0701C3007402B50C5D8055CC
:0601CA0030011CE50AF5FE
:0801D0000D04F51875823F12C1
:0901D80004CA75180175823F127A
:0601E10004CA750C01C206
:0201E7000122F3
:0A01E90074C4250A5036750D3C75EC
:0901F300183D75823F1204CA7523
:0901FC00180175823F1204CA7556
:030205000C0122C7
:09020800E50D600F1200F785827C
:080211001875823F1204CA15A2
:020219000D22B4
:04021B00750C02223A
:06021F0012016B750C00DA
:0102250022B6
:0B02260030000F120116E5826008C2D4
:0702310000758206020411B2
:0102380022A3
:0702390030866B75190F758B
:060240001A00751B407559
:090246001C0175827F1204E775AA
:03024F001910750E
:060252001A00751B407547
:0A0258001C0175827F1204E77A0092
:09026200AB0F7C001BBBFF011C6B
:0E026B008A057E00C3ED9BEE64808CF063F08C
:090279008095F0502675190E75F0
:060282001A00751B407517
:0B0288001C0175827FC0021204E78594
:0A0293000E82120411D0027404B5AB
:04029D000E028003CA
:0302A1000A80BE12
:0302A40002014F05
:0102A7002234
:0C02A800E51170347582FB12055FE582E1
:0802B400547FFA24FD400122F1
:0402BC00751911752A
:0602C0001A00751B4075D9
:0902C6001C0175827F1204E7752A
:0302CF001912758C
:0602D2001A00751B4075C7
:0802D8001C0175827F0204E79E
:0E02E0007582F512055FE582541FFBBB0128F5
:0802EE00E51124FE501C7519F6
:0502F60013751A0075EC
:0902FB001B40751C0175827F1285
:0603040004E785138212DC
:06030A000411151180DE54
:0603100075110002014F0F
:0E0316007582FB12055FE582547FFA24FE50CB
:050324001A75191375A4
:060329001A00751B40756F
:09032F001C0175827F1204E785B0
:06033800138212041115EE
:01033E0011AD
:01033F00229B
:0E03400053846C43859275808353913E4392A3
:0E034E00CD7590CD53B1FE43B20175B00043A2
:0E035C00A24043D14043D12075D2FF75D3FF9C
:0E036A009001801203B343BA20120446D2ACB5
:07037800D2AFC200C2011266
:0E037F00009812014F75C1FFC2AF75A7E5755A
:07038D00C2A575C35AD2AFEF
:0903940012008D1202267401B55D
:07039D0008051202A880030D
:0303A4001201A69D
:0703A7007402B5080280E6B4
:0503AE001201B680E120
:0E03B300AA82AB8375985243BA80BA6005BB2C
:0403C1000002802096
:0803C500BAC005BB0002802054
:0803CD00BA8005BB010280208B
:0803D500BA4005BB02028020C2
:0803DD00BA802BBB042880202C
:0803E50075BE8875BF02801E81
:0803ED0075BEBC75BF0280164D
:0803F50075BE5675BF01800EB4
:0803FD0075BEDE75BF0080062D
:0604050075BE6775BF0023
:06040B0075BD03D2992229
:02041100AA82BD
:0504130010990280FBBE
:030418008A99229C
:04041B00AA827B082E
:07041F00EB60047C01800288
:020426007C0058
:0D042800EC6016C297EA30E704D29680021D
:02043500C2966D
:0A043700D297EAA2953AFA1B80DE84
:05044100C2978A82222F
:08044600D297C296C2817AFF31
:06044E00EA60031A80FAC7
:04045400D2817AFFD8
:06045800EA60031A80FABD
:04045E00C281C297FE
:090462002095FD75823012041B87
:07046B002095FD7514DD75FD
:03047200150575F8
:09047500168075172F7582001224
:09047E00048975186075823E02C4
:0204870004CAA5
:04048900AA82C28100
:0E048D002095FD74404AF58212041BAA827B62
:01049B000060
:0A049C00C3EB95175023EB2514FC69
:0A04A600E43515FDAE168C828D833F
:0E04B0008EF01205BDF582C002C00312041BBF
:0704BE00D003D0020B80D730
:0504C500D2818A8222B1
:0404CA00AA82C281BF
:0C04CE002095FD8A8212041BAA8285186A
:0D04DA0082C00212041BD002D2818A82224D
:0404E700AA82C281A2
:0E04EB002095FD74804AF58212041BAA827BC4
:0104F9000002
:0A04FA00C3EB951C5033EB2519FCF1
:0A050400E4351AFDAE1B758200C03D
:0E050E0002C003C004C005C00612041BAF8269
:0E051C00D006D005D004D003D0028C828D838F
:09052A008EF0EF1205A40B80C74E
:05053300D2818A822242
:04053800AA82C28150
:0E053C002095FD74804AF58212041B75820022
:06054A0012041BD2812205
:04055000AA82C28138
:0B0554002095FD8A8212041BD2812238
:0E055F00AA8274404AF582C002120538AB82AF
:05056D00D00243024032
:0E0572008A82C002C003120538AC82D003D0CA
:0805800002ECFDB5030280044A
:040588008D0380E679
:03058C008D82223B
:06058F00758236120550D2
:0E0595007582F512055FE582541FFABA01F275
:0105A3002235
:0E05DD00062E0700D391FF0E05010608001040
:0E05EB0009F4CA758331E534070018166C4315
:0E05F90040914650785610E92A001F410059E3
:050607007F3F81350971
:06005A00E478FFF6D8FD7A
:080038007900E94400601B7A25
:050040000090060C78A1
:030045000075A0A3
:0A00480000E493F2A308B8000205DB
:08005200A0D9F4DAF275A0FF59
:0E05A40020F71030F6118883A88220F507F6A4
:0505B200A88375830021
:0105B7002221
:0305B800F280F7D7
:0205BB00F0222C
:080060007800E84400600A7911
:030068000075A080
:06006B0000E4F309D8FCDB
:080071007800E84400600C79FE
:0B00790000900000E4F0A3D8FCD9FACE
:03002B0075816E6E
:0A002E001205D9E5826003020026E6
:0E05BD0020F71430F6148883A88220F507E694
:0605CB00A88375830022E5
:0305D100E280F7CE
:0305D400E493228B
:0205D700E02220
:0405D9007582002205
:00000001FF
